S00E00004B65797061642E73726563B8
S11300007BC00000A7C00000A5C00000A3C0000082
S1130010A1C000009FC000009DC000009BC0000064
S113002099C0000097C0000095C0000093C0000074
S113003091C000008FC000008DC000008BC0000084
S113004089C0000087C0000085C0000083C0000094
S113005081C000007FC000007DC000007BC00000A4
S113006079C0000077C00000A2C1000073C0000086
S113007071C000006FC000006DC000006BC00000C4
S113008069C0000067C0000065C0000063C00000D4
S113009061C000005FC000005DC000005BC00000E4
S11300A059C0000057C0000055C0000053C00000F4
S11300B051C000004FC000004DC000004BC0000004
S11300C049C0000047C0000045C0000043C0000014
S11300D041C000003FC000003DC000003BC0000024
S11300E039C00000800186018C01920198019E01B3
S11300F0A401AA01B001CD0011241FBECFEFD1E2AB
S1130100DEBFCDBF00E00CBF12E0A0E0B2E0E8E348
S1130110F4E000E00BBF02C007900D92A437B107D2
S1130120D9F722E0A4E7B2E001C01D92A839B207D2
S1130130E1F710E0CCE7D0E000E005C02197010929
S1130140802FFE016FD1CB37D10780E00807B1F7CC
S113015043D070C155CFFC0120813181C901019682
S1130160918380832F713327E20FF31F64830895F3
S1130170FC0122813381C9010196938382832F710B
S11301803327E20FF31F84810895FC01808191815C
S113019022813381821B930B0895CF93DF93E3E293
S11301A0F2E06DE272E041E050E0C191D191A881AA
S11301B0B9812C91CA010E8002C0880F991F0A943C
S11301C0E2F7822B8C93E617F70779F781E0D4D016
S11301D07894DF91CF9108950F2EF3E22F2EF2E061
S11301E03F2EF02DAA24A394B12C0F2EFDE28F2EC6
S11301F0F2E09F2EF02D0F2EF9E16F2EF2E07F2E0C
S1130200F02D0F2EF0E04F2EF2E05F2EF02DD301F3
S1130210ED90FD903D01D7011296ED91FC9113975D
S11302202081C50116960C9002C0880F991F0A946C
S1130230E2F7822B808303E212E06201F801C191AC
S1130240D1918F01EA81FB81908195010E8002C0DA
S1130250220F331F0A94E2F7822F8095892380832B
S1130260D7011496ED91FC911597808190E0169634
S11302700C9002C0959587950A94E2F780FD03C01F
S1130280F60180818AD0EA81FB812081C5010E803C
S113029002C0880F991F0A94E2F7822B80838FE5AE
S11302A09DE60197F1F700C0000095E0C90ED11C4E
S11302B00815190519F6D7011296ED91FC911397BB
S11302C09081950116960C9002C0220F331F0A9458
S11302D0E2F7822F809589238083BFEF4B1A5B0A54
S11302E06214730409F093CF86CF90E0FC01329737
S11302F0E930F105D8F58827EE58FF4F8F4F92C0AB
S11303001092C5008AE88093C40008951092C50035
S113031088E68093C40008951092C50085E4809314
S1130320C40008951092C50084E38093C400089526
S11303301092C50083E28093C40008951092C50012
S113034082E28093C40008951092C50081E18093F5
S1130350C40008951092C5008FE08093C4000895EE
S11303601092C50087E08093C40008951092C500E0
S113037080ED8093C4000895B8DFE0ECF0E0808164
S113038082608083E1ECF0E0808188608083E2EC2D
S1130390F0E08081866080830895682F84E792E08E
S11303A0DADEE1ECF0E080818062808308951F92C0
S11303B00F920FB60F9211240BB60F922F933F9307
S11303C04F935F936F937F938F939F93AF93BF9359
S11303D0EF93FF93E0ECF0E080818062808384E718
S11303E092E0D3DE892B31F084E792E0C1DE809382
S11303F0C60005C0E1ECF0E080818F7D8083FF9131
S1130400EF91BF91AF919F918F917F916F915F9188
S11304104F913F912F910F900BBE0F900FBE0F90F5
S11304201F901895EE0FFF1F881F8BBF0790F69142
S10B0430E02D1994F894FFCFAC
S11304380D52363534080733323107073938370750
S11304480A23302A0707070707490242023B0234F6
S1130458022D026C0265025E02570250022100223C
S1130468002000062100220020000727002800267B
S11304780007270028002600062700280026000574
S11304882700280026000427002800260003270048
S1130498280026000227002800260001270028003B
S10704A82600000026
S9030000FC
